:1008F10057454C434F4D450056495349544F52209B
:10090100434F554E54455200454E5452593A2000DA
:0E091100455849543A20004552524F52210099
:10080000E4F50AF50BF50CF50D7F381209B812095D
:100810009B7F011209B812099B7F101209B81209B7
:100820009B7F0C1209B812099B7F801209B812092C
:100830009B7BFF7A0879F17D0712091F7FC012099F
:10084000B812099B7BFF7A0879F97D0F12091F12F4
:10085000099B20903E050BE50B7002050A640145DB
:100860000A700EE50D450C70087F011209B81209D7
:100870009B7F801209B812099B7BFF7A0979097D59
:100880000612091F7F871209B812099B0508AF08D5
:100890001209792091BC050DE50D7002050C64016B
:1008A000450C7009E50B450A700312099B7FC012C5
:1008B00009B87BFF7A0979117D0512091F7FC612DD
:1008C00009B812099B0509E509D3950840187F016D
:1008D0001209B87BFF7A0979187D0612091F1209DF
:1008E0009B1509020852AF0912097912099B0208E7
:0108F00052B5
:0E09B8008FA0C292C293D29412099BC29422C5
:0E09C6008FA0D292C293D29412099BC29422A7
:08091F008B0E8A0F89108D1167
:10092700E4F512E512C39511501AAB0EAA0FA910E0
:1009370085128275830012094CFF1209C612099BA2
:04094700051280DF36
:01094B002289
:02097900AE07C7
:10097B00EE75F00A84FFEE75F00A8485F00E743084
:10098B002FFF7430250EF50E1209C6AF0E0209C6E5
:10099B00E4FFFE0FBF00010EBE0BF8BFB8F5E4FF7E
:0C09AB00FE0FBF00010EEF64644E70F5FB
:0109B700221D
:030000000209D41E
:0C09D400787FE4F6D8FD7581120208005F
:10094C00BB010CE58229F582E5833AF583E0225060
:10095C0006E92582F8E622BBFE06E92582F8E222AA
:0D096C00E58229F582E5833AF583E49322C4
:00000001FF
